:020000040800F2
:10000000F8470020410400085D3500085F3500080E
:1000100063350008673500086B35000800000000F4
:10002000000000000000000000000000CD010008FA
:100030006F35000800000000110200086D1F000865
:100040005B0400085B0400085B0400085B04000814
:100050005B0400085B0400085B0400085B04000804
:100060005B0400085B0400085B0400085B040008F4
:100070005B0400085B0400085B0400085B040008E4
:100080005B0400085B0400085B0400085B040008D4
:100090005B0400085B0400085B0400085B040008C4
:1000A0005B0400085B0400085B0400085B040008B4
:1000B000713500085B0400085B0400085B0400085D
:1000C0005B0400085B0400085B0400085B04000894
:1000D0005B0400085B0400085B0400085B04000884
:1000E0005B0400085B0400085B0400085B04000874
:1000F0005B0400085B0400085B0400085B04000864
:100100005B0400085B0400085B0400085B04000853
:100110005B0400085B0400085B0400085B04000843
:100120005B0400085B0400085B0400085B04000833
:1001300000F002F800F03AF80AA090E8000C8244BF
:100140008344AAF10107DA4501D100F02FF8AFF29C
:10015000090EBAE80F0013F0010F18BFFB1A43F0A5
:10016000010318474435000064350000103A24BFED
:1001700078C878C1FAD8520724BF30C830C144BF0C
:1001800004680C607047000000230024002500264E
:10019000103A28BF78C1FBD8520728BF30C148BFEA
:1001A0000B6070471FB51FBD10B510BD03F044FABA
:1001B0001146FFF7F7FF03F0BAF903F062FA03B450
:1001C000FFF7F2FF03BC03F067FA0000224B196847
:1001D0000868B0E8F00F80F30988BFF36F8F4FF025
:1001E000000080F311884EF00D0E704700000000F3
:1001F00006480068006880F3088862B661B6BFF3FD
:100200004F8FBFF36F8F00DF00BF00BF08ED00E02E
:10021000EFF30980BFF36F8F0F4B1A6820E9F00FDF
:10022000106008B54FF0BF0080F31188BFF34F8F07
:10023000BFF36F8F02F018FB4FF0000080F31188BE
:10024000BDE8084019680868B0E8F00F80F3098835
:10025000BFF36F8F704700BF44000020EFF30580AD
:10026000704700000CB50020019000906B480068BA
:1002700040F480306949086000BF6848006800F4B5
:10028000003000900198401C0190009818B9019826
:10029000B0F5A06FF1D16148006810F4003F02D0C2
:1002A0000120009001E0002000900098012842D138
:1002B0005B48006840F01000594908600846006833
:1002C00020F0030008600846006840F00200086063
:1002D00052484068514948600846406848600846AE
:1002E000406840F4806048600846406820F47C1014
:1002F00048600846406840F4E810486008460068D6
:1003000040F08070086000BF4448006810F0007F33
:10031000FAD04248406820F003004049486008464F
:10032000406840F00200486000BF3C48406800F070
:100330000C000828F9D10CBD10B5FFF793FF10BDD4
:1003400010B53648006840F001003449086008469E
:1003500040683449084031494860084600683249DD
:1003600008402E4908600846006820F48020086094
:100370000846406820F4FE0048604FF41F00886083
:10038000FFF7DAFF4FF000602849086010BD10B594
:10039000002100200022214B5B6803F00C0121B1F9
:1003A000042906D0082928D107E0214B214C2360DD
:1003B00027E01F4B1F4C236023E0184B5B6803F4BE
:1003C0007010164B5B6803F48032022303EB9040FD
:1003D00022B9194B4343174C23600DE00F4B5B6868
:1003E00013F4003F04D0144B4343124C236003E04A
:1003F0000F4B43430F4C236003E00D4B0D4C236028
:1004000000BF00BF054B5B68C3F303130B4CE15CFB
:10041000084B1B68CB40074C236010BD0010024006
:10042000002002400000FFF8FFFFF6FE08ED00E0AC
:1004300000127A000000002000093D0004000020A6
:100440000948804709480047FEE7FEE7FEE7FEE768
:10045000FEE7FEE7FEE7FEE7FEE7FEE704480549A4
:10046000054A064B704700004103000831010008AF
:10047000F8410020F8470020F8430020F84300200E
:1004800031490143314A1160704770B500210023A2
:100490000F22C4780CB32D4C246804F4E064C4F536
:1004A000E064210AC1F10403CA40447804FA03F16C
:1004B0008478144021430901254C0678A15504781D
:1004C00004F01F050124AC4005786D114FF0E026C3
:1004D00006EB8505C5F8004109E0047804F01F0526
:1004E0000124AC401B4D0678761145F8264070BDBE
:1004F000194A0A400243154B1B1F1A60704739B155
:10050000124A121D12680243104B1B1D1A6006E0AE
:100510000E4A121D126882430C4B1B1D1A60704755
:10052000042808D14FF0E021096941F004014FF09F
:10053000E022116107E04FF0E021096921F0040198
:100540004FF0E022116170470000FA050CED00E069
:1005500000E400E080E100E080FFFF1F10B50446EA
:10056000CA48844208D10121042000F047FB002141
:10057000042000F043FB46E0C548844208D1012135
:10058000082000F03BFB0021082000F037FB3AE098
:10059000C048844208D10121102000F02FFB002127
:1005A000102000F02BFB2EE0BB48844208D1012133
:1005B000202000F023FB0021202000F01FFB22E080
:1005C000B648844208D10121402000F017FB0021E9
:1005D000402000F013FB16E0B148844208D101210D
:1005E000802000F00BFB0021802000F007FB0AE0D8
:1005F000AC48844207D10121801500F0FFFA0021A8
:10060000A01500F0FBFA10BD10B50121084600F05E
:10061000F5FA0021012000F0F1FA10BD2DE9F041BA
:10062000024600250026002000230024002791F820
:1006300003C00CF00F0591F803C01CF0100F03D09D
:1006400091F802C04CEA050591F800C0BCF1000F1A
:1006500031D0146800202BE04FF0010C0CFA00F3AD
:10066000B1F800C00CEA03069E4220D183004FF08F
:100670000F0C0CFA03F7BC4305FA03FC4CEA040424
:1006800091F803C0BCF1280F06D14FF0010C0CFA11
:1006900000FCC2F814C00AE091F803C0BCF1480F96
:1006A00005D14FF0010C0CFA00FCC2F810C0401C40
:1006B0000828D1D31460B1F800C0BCF1FF0F34DDBD
:1006C000546800202EE000F1080C4FF0010808FAF1
:1006D0000CF3B1F800C00CEA03069E4221D183005E
:1006E0004FF00F0C0CFA03F7BC4305FA03FC4CEA7D
:1006F000040491F803C0BCF1280F05D100F1080CE7
:1007000008FA0CF8C2F8148091F803C0BCF1480F45
:1007100007D100F1080C4FF0010808FA0CF8C2F8F4
:100720001080401C0828CED35460BDE8F0814FF6FD
:10073000FF710180022181700421C170704702465F
:10074000002093680B4201D0012000E00020704798
:100750000146886880B2704702460020D3680B4289
:1007600001D0012000E0002070470146C86880B237
:10077000704701617047416170470AB1016100E053
:1007800041617047C16070474FF480320A43826113
:100790008161826182698269704702460020424B12
:1007A00018684FF68073184040EA021008433E4B29
:1007B000186070473D49C8617047F0B50A4600238C
:1007C00000240021002500F00046B6F1004F02D1C0
:1007D000354EF16901E0344E7168C0F3034583B2D0
:1007E00000F44016B6F5401F08D121F070612E4E7E
:1007F000766826F070662C4F7E6012E000F480165A
:10080000B6F5801F06D1032606FA05F4A14341F090
:10081000706106E0460D360103FA06F6B14341F079
:10082000706122B1460D360103FA06F6314300F03D
:100830000046B6F1004F02D11B4EF16101E01A4EA5
:100840007160F0BD30B500228B071C0F0F2303FA37
:1008500004F2154B08338C1053F824309343124C98
:1008600008348D1044F8253023468C1053F824307A
:100870008C07240F00FA04F423430B4C08348D102A
:1008800044F8253030BD0A4908607047000801402F
:10089000000C01400010014000140140001801400C
:1008A000001C0140002001400000014000002042E7
:1008B000DC0020420E49086070470D4948607047CF
:1008C0000B49886070474AF6AA20094908607047BA
:1008D0004CF6CC4006490860704701460020044AA7
:1008E000D2680A4201D0012000E0002070470000D9
:1008F00000300040DD48006840F00100DB4908603E
:1009000008464068DA490840D84948600846006807
:10091000D8490840D54908600846006820F480207E
:1009200008600846406820F4FE0048604FF41F004D
:1009300088607047CD49096821F48031CB4A116045
:100940001146096821F480211160B0F5803F03D081
:10095000B0F5802F0ED106E0C449096841F480311A
:10096000C24A116007E0C149096841F4A021BF4AA9
:10097000116000E000BF00BF704710B501460022C3
:10098000002300204A11012A02D1B84C236806E056
:10099000022A02D1B54C236A01E0B44C636A01F02B
:1009A0001F02012494401C4201D0012000E00020DD
:1009B00010BD38B5002000900024002500BF312074
:1009C000FFF7DBFF05460098401C00900098B0F54B
:1009D000A06F01D0002DF2D03120FFF7CEFF08B17B
:1009E000012400E00024204638BD014600209F4A33
:1009F000106820F0F80040EAC100106070479E497E
:100A00000860704702460020984B586820F47C101C
:100A100042EA01031843954B5860704796490866AF
:100A2000704701460020914A506820F003000843B7
:100A3000506070478D48406800F00C0070470146D8
:100A400000208A4A506820F0F00008435060704748
:100A500001460020854A506820F4E0600843506059
:100A6000704701460020814A506820F4605040EAF7
:100A7000C1005060704729B17C4A527A02437B4BD7
:100A80005A7204E0794A527A8243784B5A7270471C
:100A90007A490860704701460020744A506820F483
:100AA00040400843506070470021754A11706F4AFA
:100AB00082F82010012802D0042808D103E0012187
:100AC0006F4A117004E005216D4A117000E000BF0B
:100AD00000BF70476B49086070476449096A014369
:100AE000624A11627047674944390860704730B5FF
:100AF00000210022002400235C4D6D6805F00C01EC
:100B000021B1042905D0082923D105E05E4D0560F7
:100B100022E05D4D05601FE0544D6D6805F47012D4
:100B2000524D6D6805F48034022505EB92421CB9E4
:100B3000564D554305600BE04C4D6D6815F4003F74
:100B400003D0524D5543056002E04F4D55430560BB
:100B500002E04D4D056000BF00BF444D6D6805F0DB
:100B6000F00109094A4D6B5C0568DD4045603F4D69
:100B70006D6805F4E061090A454D6B5C4568DD4030
:100B800085603A4D6D6805F46051C90A404D6B5C53
:100B90004568DD40C560354D6D6805F44041890B01
:100BA0003C4D6B5CC568B5FBF3F5056130BD29B103
:100BB0002E4A526902432D4B5A6104E02B4A526976
:100BC00082432A4B5A61704729B1284A92690243ED
:100BD000264B9A6104E0254A92698243234B9A612D
:100BE000704729B1214AD2690243204BDA6104E0FF
:100BF0001E4AD26982431D4BDA61704729B11B4AF4
:100C0000D2680243194BDA6004E0184AD268824382
:100C1000164BDA60704729B1144A12690243134B2C
:100C20001A6104E0114A12698243104B1A6170473D
:100C300014494039086070470F49C86470470B4930
:100C4000C87170470948406A40F08070074948629F
:100C5000704701460020054A92680A4201D00120EF
:100C600000E0002070470149887270470010024080
:100C70000000FFF8FFFFF6FE00004242D8004242AB
:100C8000201002408004424200127A0000093D0018
:100C9000140000202400002010B50446FE488442C1
:100CA00008D10121C014FFF7A9FF0021E014FFF7CC
:100CB000A5FFC4E0B4F1804F08D101210846FFF739
:100CC000AAFF00210120FFF7A6FFB8E0F348844205
:100CD00008D101210220FFF79EFF00210220FFF72B
:100CE0009AFFACE0EE48844208D101210420FFF7CE
:100CF00092FF00210420FFF78EFFA0E0E948844224
:100D000008D101210820FFF786FF00210820FFF706
:100D100082FF94E0E448844208D101211020FFF7CB
:100D20007AFF00211020FFF776FF88E0DF48844239
:100D300008D101212020FFF76EFF00212020FFF7BE
:100D40006AFF7CE0DA48844208D101214014FFF7B1
:100D500055FF00216014FFF751FF70E0D548844231
:100D600009D10121C804FFF749FF00214FF40020F9
:100D7000FFF744FF63E0D048844209D10121080510
:100D8000FFF73CFF00214FF48010FFF737FF56E0DC
:100D9000CA48844209D101214805FFF72FFF0021ED
:100DA0004FF40010FFF72AFF49E0C548844208D1FC
:100DB00001214020FFF72FFF00214020FFF72BFFEC
:100DC0003DE0C048844208D101218020FFF723FF85
:100DD00000218020FFF71FFF31E0BB48844208D18B
:100DE00001218015FFF717FF0021A015FFF713FF62
:100DF00025E0B648844209D101210804FFF7FEFE30
:100E000000214FF48030FFF7F9FE18E0B04884422B
:100E100009D101214804FFF7F1FE00214FF4003011
:100E2000FFF7ECFE0BE0AB48844208D101218804B7
:100E3000FFF7E4FE00214FF48020FFF7DFFE10BD36
:100E400000220288944B98420ED0994B98420BD0C6
:100E5000B0F1804F08D0914B984205D0904B98420A
:100E600002D0904B984204D14FF68F731A404B88B2
:100E70001A438D4B984207D08C4B984204D04FF6C2
:100E8000FF431A40CB881A4302808B8883850B88E6
:100E90000385814B98420BD0854B984208D08B4BF1
:100EA000984205D08A4B984202D08A4B984201D191
:100EB0000B7A038601238382704770B500240022D9
:100EC0000023058C4FF6FE7635400584028C83881E
:100ED000048B4FF68F752C40B51E2C400D882C438B
:100EE000751E2A400D892A434D882A436A4DA8421F
:100EF0000BD06F4DA84208D0744DA84205D0744D58
:100F0000A84202D0734DA84213D14FF6F7752A407C
:100F10004D892A434FF6FB752A408D882A434FF6A8
:100F2000FF652B404FF6FF552B408D892B43CD8914
:100F30002B4383800483CD888586028470BD70B581
:100F4000002400220023058C4FF6EF7635400584FF
:100F5000028C8388048B48F6FF752C404FF6FF45C2
:100F60002C400D884FF6FF7606EA05252C434FF6F8
:100F7000DF752A400D8906EA05152A434D8806EAE1
:100F800005152A43444DA84202D0494DA8421DD11F
:100F90004FF67F752A404D894FF6FF7606EA051514
:100FA0002A434FF6BF752A408D8806EA05152A4365
:100FB0004FF6FF352B404FF2FF752B408D8906EA27
:100FC00085052B43CD8906EA85052B438380048361
:100FD000CD880587028470BD70B5002400220023EF
:100FE000058C4FF6FF6635400584028C8388848B20
:100FF0004FF68F752C404FF6FC752C400D882C4316
:101000004FF6FF552A400D894FF6FF7606EA052573
:101010002A434D8806EA05252A431F4DA84202D0DF
:10102000234DA8421DD14FF2FF752A404D894FF63E
:10103000FF7606EA05252A434FF6FF352A408D88BC
:1010400006EA05252A434EF6FF752B404DF6FF753F
:101050002B408D8906EA05152B43CD8906EA051537
:101060002B4383808483CD888587028470BD70B5CF
:10107000002200230024058C4EF6FF7635400584BF
:10108000038C8488828B48F6FF752A404FF6FF4513
:101090002A400D8820E00000002C014000040040A0
:1010A00000080040000C0040001000400014004008
:1010B00000340140004C0140005001400054014008
:1010C00000180040001C004000200040004001408B
:1010D00000440140004801404FF6FF7606EA05252E
:1010E0002A434DF6FF752B400D8906EA05352B4343
:1010F0004D8806EA05352B43FA4DA84202D0FA4D39
:10110000A84208D14BF6FF752C408D894FF6FF762B
:1011100006EA85152C4384808283CD88A0F8405050
:10112000038470BD828B4FF2FF331A408283828B1F
:101130004FF6FF7303EA01231A4382837047F0B529
:101140000C461546002200210026078C4EF6FF7C37
:1011500007EA0C070784828B018C4FF6FF7707EABA
:10116000043640F6FF473A404FF6FF7707EA052777
:101170003A434FF6FF7707EA03373A43D94FB8426D
:101180000ED0D94FB8420BD0B0F1804F08D0D74F16
:10119000B84205D0D64FB84202D0D64FB84206D199
:1011A0004DF6FF77394046F48057394305E047F65E
:1011B000FF57394044F48057394382830184F0BD9E
:1011C000828B4FF6F3731A408283828B0A438283A9
:1011D0007047F0B50C461546002200210026078C0A
:1011E0004FF6FF6C07EA0C070784828B018C4FF6E1
:1011F000FF7707EA04264FF60C773A404FF6FF7761
:1012000007EA03172F433A43B64FB8420ED0B64F02
:10121000B8420BD0B0F1804F08D0B44FB84205D0DF
:10122000B34FB84202D0B34FB84206D14FF6FF5782
:10123000394046F48077394305E04FF2FF57394093
:1012400044F48077394382830184F0BD028B4FF2EE
:10125000FF331A400283028B4FF6FF7303EA012328
:101260001A4302837047F0B50C4615460022002150
:101270000026078C4FF6EF7C07EA0C070784028BE9
:10128000018C4FF6FF7707EA041640F6FF473A4015
:101290004FF6FF7707EA03373A434FF6FF7707EA3F
:1012A00005273A438F4FB8420ED08F4FB8420BD02C
:1012B000B0F1804F08D08D4FB84205D08C4FB84266
:1012C00002D08C4FB84206D14FF6DF77394046F056
:1012D0001007394305E04FF65F77394044F01007B7
:1012E000394302830184F0BD028B4FF6F3731A4039
:1012F0000283028B0A4302837047F0B50C46154601
:1013000000220021068C4FF6FE773E400684028BB9
:10131000018C4FF60C7632407E1C06EA03162E43F3
:101320003243704EB0420ED06F4EB0420BD0B0F18F
:10133000804F08D06D4EB04205D06D4EB04202D005
:101340006C4EB04206D14FF6FD76314044F00106B6
:10135000314305E04FF6F576314044F00106314364
:1013600002830184F0BD70B505460C465D48854298
:101370000ED05D4885420BD0B5F1804F08D05B4858
:10138000854205D05A48854202D05A48854200D14C
:1013900000E000BF208850B92389A28861882846D0
:1013A000FFF7ABFFE1882846FFF79EFF25E0208886
:1013B00004280AD12389A28861882846FFF753FFB1
:1013C000E1882846FFF742FF17E0208808280AD165
:1013D0002389A28861882846FFF7FBFEE18828461A
:1013E000FFF7EEFE09E02389A28861882846FFF70F
:1013F000A6FEE1882846FFF795FE70BD2DE9F04175
:1014000005460C4600260127608808B9022600E040
:101410000026A088012801D1022700E001272088AA
:10142000A0B92389A28861882846FFF766FFE18872
:101430002846FFF759FF23893A4631462846FFF7E9
:1014400012FFE1882846FFF701FF13E02389A288F5
:1014500061882846FFF707FFE1882846FFF7F6FE78
:1014600023893A4631462846FFF747FFE188284658
:10147000FFF73AFFBDE8F0810A884B881A438B8852
:101480001A43CB881A430B891A434B891A438B8919
:101490001A43A0F8442070474FF6FF718180002165
:1014A0000180C1804180017270470021018041802C
:1014B0008180C180018141818181C181704700218A
:1014C00001804180012181800021C180018170471C
:1014D0000021018041808180C18001814181818121
:1014E00070470000002C014000340140000400401F
:1014F00000080040000C004021B1028842F00102C7
:10150000028004E002884FF6FE731A4002807047A2
:1015100031B1B0F8442042F40042A0F8442005E084
:10152000B0F84420C2F30E02A0F8442070471AB16C
:1015300083890B43838102E083898B4383817047D6
:101540008182704741EA0203A0F8483070471AB11F
:1015500083890B43838102E083898B4383817047B6
:1015600001894FF6F8721140018170470A46002147
:1015700001894FF68F73194011430181704730B5CF
:1015800004460D4629462046FFF7F0FF208940F02B
:101590000700208130BD2DE9F04104460D46164676
:1015A0001F46602D06D13B46012231462046FFF7FB
:1015B0005AFE05E03B46012231462046FFF79DFEDC
:1015C00029462046FFF7D2FF208940F007002081FE
:1015D000BDE8F08130B50C4600210189C9B24FF653
:1015E000FF7505EA0325154325432943018130BDD5
:1015F0002DE9F04105460E4617469846002443461D
:101600003A4631462846FFF7E5FF2C894FF6F87039
:10161000044044F007044FF68F70044044F0700417
:101620002C81BDE8F081F0B504460D4616461F46F4
:101630003B46324629462046FFF7CCFF208940F43E
:1016400080402081F0BD0185828270470A460021DA
:1016500001884FF68F731940114301807047F0B530
:101660000C4615461E460021002200230189028BEC
:10167000038C4FF6F877394021434FF6FC473A4048
:1016800040F201173A434FF6DD773B404FF6FF77C4
:1016900007EA06172F433B43018102830384F0BD11
:1016A0000A460021018B4FF68F73194011430183C5
:1016B00070470A460021018B48F6FF7319404FF628
:1016C000FF7303EA02231943018370470A4600218E
:1016D000818B4FF68F7319401143818370470A46FF
:1016E0000021818B48F6FF7319404FF6FF7303EA20
:1016F000022319438183704721B1028842F080029E
:10170000028004E002884FF67F731A40028070471F
:1017100021B1828842F00402828004E082884FF680
:10172000FB731A408280704721B1828842F0080220
:10173000828004E082884FF6F7731A4082807047F7
:1017400021B1828842F00102828004E082884FF653
:10175000FE731A40828070470A460021018B4FF6C3
:10176000F77319401143018370470A460021018B2A
:101770004FF2FF7319404FF6FF7303EA0223194338
:10178000018370470A460021818B4FF6F773194099
:101790001143818370470A460021818B4FF2FF730A
:1017A00019404FF6FF7303EA022319438183704700
:1017B0000A460021018B4FF6FB7319401143018348
:1017C00070470A460021018B4FF6FF3319404FF650
:1017D000FF7303EA02231943018370470A4600217D
:1017E000818B4FF6FB7319401143818370470A4682
:1017F0000021818B4FF6FF3319404FF6FF7303EA48
:1018000002231943818370470A460021018B4FF65A
:101810007F7319401143018370470A460021018BF1
:10182000C1F30E014FF6FF7303EA0223194301834C
:1018300070470A460021818B4FF67F731940114390
:10184000818370470A460021818BC1F30E014FF658
:10185000FF7303EA02231943818370470A4600217C
:10186000018C4FF6FD7319401143018470470A46FD
:101870000021018C4FF6F773194011430184704722
:101880000A460021018C4FF6DF7319404FF6FF73B3
:1018900003EA02131943018470470A460021018CB0
:1018A0004FF67F7319404FF6FF7303EA0213194393
:1018B000018470470A460021018C4FF6FF531940FE
:1018C0004FF6FF7303EA02231943018470470A4667
:1018D0000021018C4FF2FF7319404FF6FF7303EAAA
:1018E00002231943018470470A460021018C4DF6FA
:1018F000FF7319404FF6FF7303EA02331943018463
:10190000704730B5002301248C40A3B2048C9C4363
:101910000484048C02FA01F5ADB22C43048430BD7A
:1019200030B5002304248C40A3B2048C9C4304846F
:10193000048C02FA01F5ADB22C43048430BD70B5BD
:101940000346002000241846183001258D40ACB213
:101950001D8CA5431D8409B1082909D100EB610044
:10196000056825F0700505600568154305600EE003
:101970000D1FC5F34E052844056825F4E0450560B4
:1019800005684FF6FF7606EA02263543056070BD0E
:1019900021B1028842F00202028004E002884FF680
:1019A000FD731A400280704721B1028842F00402A0
:1019B000028004E002884FF6FB731A4002807047F1
:1019C00021B1828842F08002828004E082884FF652
:1019D0007F731A408280704702884FF6F7731A406F
:1019E000028002880A430280704782884FF68F7314
:1019F0001A40828082880A438280704702894FF6AB
:101A0000F8731A40028102890A43028170470289F1
:101A10004FF67F731A40028102890A4302817047A0
:101A20008184704781857047818670470187704740
:101A300081877047A0F84010704702884FF6FF4337
:101A40001A40028002880A43028070470146888E4D
:101A500070470146088F70470146888F70470146DE
:101A6000B1F8400070470146888C70470146088DE8
:101A7000704702460020138A0B4201D0012000E08B
:101A800000207047CA430282704730B502460020EA
:101A900000230024158A05EA0103958905EA01045B
:101AA00013B10CB1012000E0002030BDCA43028216
:101AB0007047000010B50446FB48844209D101215B
:101AC0008803FFF79BF800214FF48040FFF796F85A
:101AD00032E0F648844209D101214804FFF79BF81F
:101AE00000214FF40030FFF796F825E0F0488442DB
:101AF00009D101218804FFF78EF800214FF48020DE
:101B0000FFF789F818E0EB48844209D10121C804A5
:101B1000FFF781F800214FF40020FFF77CF80BE07D
:101B2000E548844208D101210805FFF774F8002137
:101B30004FF48010FFF76FF810BD2DE9F04786B025
:101B400005460E460024A24600BFA1460027B089E4
:101B500000B100BF2F462C8A4CF6FF700440F0887D
:101B600004432C82AC894EF6F3100440B0883189CE
:101B70000843718908430443AC81AC8A4FF6FF40A7
:101B80000440B0890443AC8201A8FEF7B0FFC64808
:101B9000874202D1DDF810A001E0DDF80CA0A88991
:101BA00010F4004F08D00AEBCA0000EB0A103168AD
:101BB0004900B0FBF1F807E00AEBCA0000EB0A109D
:101BC00031688900B0FBF1F86420B8FBF0F0040143
:101BD0002009642101FB1089A88910F4004F08D066
:101BE000322000EBC900B0FBF1F000F00700044325
:101BF00008E0322000EB09106421B0FBF1F000F0A6
:101C00000F0004432C8106B0BDE8F0874FF4165155
:101C1000016000218180C18001810C21418100216E
:101C20008181704710B502460020108A4FF2FF03F1
:101C300018400B884C8823438C882343CC8823434B
:101C40001843108210BD0021018041808180C18035
:101C5000704721B1828942F40052828104E0828976
:101C60004DF6FF731A4082817047F0B50346002499
:101C7000002600250020A1F510676A3F00D100BFB3
:101C80001846C1F3421401F01F06012707FA06F5B2
:101C9000012C01D10C3004E0022C01D1103000E005
:101CA00014301AB107682F43076002E00768AF439A
:101CB0000760F0BD1AB1838A0B43838202E0838AF6
:101CC0008B4383827047028A4FF6F0731A40028278
:101CD000028A0A430282704782894FF2FF731A40D8
:101CE000828182890A438281704721B1828942F0D0
:101CF0000202828104E082894FF6FD731A408281DC
:101D00007047028A4FF6DF731A400282028A0A4342
:101D10000282704721B1028A42F48042028204E0CA
:101D2000028A4BF6FF731A4002827047C1F3080221
:101D30008280704701468888C0F308007047818917
:101D400041F0010181817047028BD2B20283028B84
:101D500042EA012202837047028B02F47F4202832F
:101D6000028B0A430283704721B1828A42F020022B
:101D7000828204E0828A4FF6DF731A4082827047C3
:101D800021B1828A42F01002828204E0828A4FF6F8
:101D9000EF731A408282704721B1828A42F00802B2
:101DA000828204E0828A4FF6F7731A40828270477B
:101DB00021B1828942F40042828103E08289C2F328
:101DC0000E028281704721B1828A42F400628282CF
:101DD00004E0828A4FF2FF731A4082827047828A3F
:101DE0004FF6FB731A408282828A0A4382827047CE
:101DF00021B1828A42F00202828204E0828A4FF696
:101E0000FD731A408282704702460020B1F5007FC0
:101E100000D100BF13880B4201D0012000E0002058
:101E2000704701F40072B2F5007F00D100BFCA43D1
:101E30000280704770B50246002400230025002070
:101E4000A1F510666A3E00D100BFC1F3421501F052
:101E50001F03012606FA03F3012D02D196893340B0
:101E600006E0022D02D1168A334001E0968A334003
:101E70000C12012606FA04F41688344013B10CB192
:101E8000012000E0002070BD10B500220023A1F564
:101E900010646A3C00D100BF0A1201249440A3B22E
:101EA000DC43048010BD00000038014000440040C5
:101EB00000480040004C00400050004000BFBF20E0
:101EC00080F31188BFF34F8FBFF36F8F00BF00BF48
:101ED000FEE7001F4FF080730360001F21F0010335
:101EE0000360001F2D4B03601438026020387047D8
:101EF00000204FF0E021086188614AF6DF30486138
:101F000007200861704710B52548006840F47F003D
:101F1000234908600846006840F07F400860FFF7EA
:101F2000E7FF00201F490860FEF762F9002010BD9E
:101F3000704700BFBF2080F31188BFF34F8FBFF3FE
:101F40006F8F00BF17480068401C16490860704733
:101F500014480068401E134908600846006820B90C
:101F6000002080F3118800BF00BF704710B500BF8C
:101F7000BF2080F31188BFF34F8FBFF36F8F00BF77
:101F800000F042FA20B14FF0805005491C3908603A
:101F900000BF002080F3118800BF10BDBD1E0008E7
:101FA00020ED00E028000020434A22F00700434AC9
:101FB00010600022414B5A6043F6F872404B5A6061
:101FC00000221A60014643F6F8724A601A460A6017
:101FD00070472DE9F04104464FF0000800F05DFB2A
:101FE0003848006820B9FFF7DFFF01203549086055
:101FF00044B1083414F0070F04D004F00700C0F116
:1020000008000444002C32D043F6F87084422ED2EB
:102010002A4F3846056801E02F462D686868A042BF
:1020200002D228680028F7D1254885421FD0386899
:1020300000F10808286838606868001B102810D96B
:102040002E196868001B70606C6071681B4800E0A6
:102050000068026852688A42FAD3026832600660F9
:1020600000BF194968680968081A1749086000F034
:1020700049FA4046BDE8F08170B506463546B6B12E
:10208000083D2C4600F009FB61680C4800E0006840
:10209000026852688A42FAD30268226004600A49E0
:1020A0006068096808440849086000F02BFA70BDB0
:1020B00005480068704770479C00002034000020ED
:1020C0003C000020300000202C00002000F108011E
:1020D00041604FF0FF31816000F10801C160016192
:1020E00000210160704700210161704742684A6029
:1020F00093688B60936859609160086103685B1C0A
:102100000360704710B502460B685C1C01D1106972
:1021100007E002F1080000E04068446824689C423F
:10212000FAD944684C604C68A160886041600A61DB
:102130001468641C146010BD01460A69D1E90130BD
:102140009860D1E9010358605068884201D18868DD
:102150005060002008611068401E106010687047D1
:1021600010B5002407E004EB8401FE4A02EB810075
:10217000FFF7ACFF641C082CF5D3FB48FFF7A6FF64
:10218000FA48FFF7A3FFFA48FFF7A0FFF948FFF767
:102190009DFFF948FFF79AFFF348F8490860F348B4
:1021A000F749086010BD10B50446FFF7C2FEF548B8
:1021B0000068401CF3490860F348006840B9F248E1
:1021C00004600846006801280DD1FFF7C9FF0AE046
:1021D000EE48006838B9EC480068C06AE16A884295
:1021E00001D8E9480460EA480068401CE8490860F2
:1021F00094F82C1001208840E64909680843E54915
:102200000860E16A01EB8101D64A02EB8100211DE1
:10221000FFF76CFFFFF79CFEDC48006868B1DA4806
:102220000068C06AE16A884207D24FF08050DA49FC
:102230000860BFF34F8FBFF36F8F10BD2DE9FF5FB5
:1022400080460E469146DDE90E7A109CA9F1010008
:10225000216B01EB800B2BF0070B86B1002507E00B
:10226000715D04F134004155705D00B902E06D1CF0
:10227000102DF5D300BF00214320015502E00020BE
:1022800084F83400082F00D30727E762201DFFF7EA
:102290002AFF04F11800FFF726FF2461C7F10800A8
:1022A000A06164620020606484F84800414658469A
:1022B000039AFFF70EFE2060BAF1000F01D0CAF8B2
:1022C0000040BDE8FF9F2DE9FF4F85B0804689465D
:1022D0001746DDE912ABB800FFF77BFE064656B1A4
:1022E0004C20FFF776FE04460CB1266304E030462E
:1022F000FFF7C2FE00E000247CB10020CDE900AB76
:10230000CDE902403A4649464046089BFFF796FF12
:102310002046FFF748FF012501E04FF0FF35284632
:1023200009B0BDE8F08F95490968096809B901212C
:1023300000E0002121B14FF0FF31984A116006E022
:102340008E490968C968C868944A41681160704735
:1023500010B50446206BFFF78FFE2046FFF78CFE7A
:1023600010BD70B50546FFF7E4FD15B98648006855
:1023700000E028460446201DFFF7DEFE78B9E06A3B
:1023800000EB8000774951F8200040B994F82C10F8
:10239000012088407F49096881437E480160A06A26
:1023A00018B104F11800FFF7C7FE79480068401C17
:1023B0007749086074480068844209D1211D6D483E
:1023C000FFF794FE76480068401C7549086009E0F4
:1023D0006C480068401E6B4908602046FFF7B8FF54
:1023E000FFF7A1FFFFF7B4FD6848006858B16648E1
:1023F0000068844207D14FF0805067490860BFF3FE
:102400004F8FBFF36F8F70BD2DE9F04100276548F6
:102410000068002868D164480068451C624805606F
:102420008DB95648D0F80080554800685349086077
:102430005348C0F800805D480068401C5B49086054
:10244000FFF771FF00BF5548006885423BD300BFCE
:102450004A480068006808B9012000E0002020B167
:102460004FF0FF304D4908602CE044480068C068D8
:10247000C4686668B54202D24848066022E0201D62
:10248000FFF75AFEA06A18B104F11800FFF754FED6
:1024900094F82C10012088403E49096808433D49C2
:1024A0000860E16A01EB81012E4A02EB8100211DE7
:1024B000FFF71CFE3449E06A0968C96A8842C7D33D
:1024C0000127C5E700BF30480068C06A00EB800004
:1024D000244951F82000012800D901273448006818
:1024E00008B901F02FF806E031480068401C304977
:1024F000086001F027F82F48006800B1012738462E
:10250000BDE8F08170B500240026FFF712FD2548D4
:102510000068401E234908600846006800287AD1F8
:1025200018480068002876D04FE01148C068C46899
:1025300004F11800FFF700FE201DFFF7FDFD94F8E1
:102540002C1001208840134909680843114908608C
:10255000E16A01EB8101034A02EB8100211DFFF7D3
:10256000C5FD29E09440002034410020484100206E
:102570005C41002070410020844100207800002050
:102580007C0000204C000020440000205800002067
:10259000680000205400002004ED00E06C000020E2
:1025A000480000207400002050000020640000203B
:1025B0005C00002060000020F849E06A0968C96AF0
:1025C000884202D30120F6490860F648006808B93D
:1025D000012000E000200028A7D00CB1FFF7A3FEE7
:1025E000F148056865B100BFFFF70EFF10B101208B
:1025F000EB4908606D1E002DF6D10020EA49086005
:10260000E748006838B101263007E8490860BFF3A1
:102610004F8FBFF36F8FFFF79BFC304670BD2DE9E6
:10262000F04105460E46E2480768DC480068001D98
:10263000FFF782FD50B9D948006890F82C100120AE
:102640008840DC4909688143DA480160681C07D189
:1026500036B1D2480168091DD748FFF747FD1AE097
:102660007C19CE4800684460BC4207D2CB48016860
:10267000091DD2480068FFF745FD0CE0C748016816
:10268000091DCF480068FFF73DFDCE480068844231
:1026900001D2CC480460BDE8F081CB480068401C02
:1026A000C949086070472DE9F047044688464FF055
:1026B0000009FFF7F2FFBE480668206800EB080536
:1026C0002068B04207D92068A8420BD9B54209D981
:1026D0004FF0010906E02068A84201D8B54201D9AF
:1026E0004FF001092560B9F1000F03D0A81B0021AC
:1026F000FFF795FFFFF706FF07463FB94FF0805001
:10270000AA490860BFF34F8FBFF36F8FBDE8F08712
:1027100070B50446002544B1FFF7BFFF00212046F5
:10272000FFF77DFFFFF7EEFE05463DB94FF0805005
:102730009E490860BFF34F8FBFF36F8F70BD70B5B8
:102740000446FFF7F6FB14B99448006800E0204601
:102750000646F56AFFF7FCFB284670BD70B50246D9
:1027600000BFBF25EFF3118485F31188BFF34F8FAE
:10277000BFF36F8F00BF214612B9884C246800E078
:1027800014462346D86A00BF81F3118800BF70BD8C
:102790002DE9F04780460D464FF00009082D00D383
:1027A0000725FFF7C6FBB8F1000F02D17B48006890
:1027B00000E040460446E66AAE4251D0B5420BD92D
:1027C0007648006884420DD074480068C06AA84208
:1027D00008D84FF0010905E070480068844201D133
:1027E0004FF00109E76AE562A06910F0004F02D1DD
:1027F000C5F10800A06107EB8701744A02EB810173
:102800006069884201D1012000E00020E0B1201D74
:10281000FFF792FC30B90120B8406649096881434E
:102820006448016094F82C100120884061490968CF
:10283000084360490860E16A01EB8101634A02EBE9
:102840008100211DFFF752FCB9F1000F07D04FF0B6
:10285000805056490860BFF34F8FBFF36F8F00BFA2
:10286000FFF776FBBDE8F0875748006818B10120F4
:102870004B4908601DE00020494908604D48006848
:10288000B0FA80F0C0F11F0101EB81024F4B03EB66
:10289000820042685268426000F108024368934235
:1028A00002D14268526842604268D2683B4B1A606B
:1028B00000BF704770B50546FFF73BFB15B93748B9
:1028C000006800E028460446201DFFF735FC78B973
:1028D000E06A00EB80003D4951F8200040B994F8CF
:1028E0002C10012088403349096881433148016038
:1028F000A06A18B104F11800FFF71EFC211D2E4834
:10290000FFF7F4FB94F84800012802D1002084F876
:102910004800FFF71DFB2E48006828B1FFF709FBB0
:10292000FFF701FDFFF714FB1C480068844217D134
:102930002748006840B14FF080501C490860BFF341
:102940004F8FBFF36F8F0BE01B4800682149096868
:10295000884203D100201149086001E0FFF784FF9D
:1029600070BD10B5014600200A46134C5369A342BE
:1029700001D1012300E0002373B10A4C936AA34202
:1029800001D1012300E0002333B9936A0BB901237D
:1029900000E0002303B1012010BD0000440000202E
:1029A000600000205C4100205C00002004ED00E09D
:1029B0005000002054000020844100207C000020B2
:1029C000780000206C00002074000020944000205B
:1029D000580000204C00002070B505462C46FE48EB
:1029E000006884422BD054B3FFF7A3FA2046FFF7C8
:1029F000B8FF10B3201DFFF79FFB94F82C100120A7
:102A00008840F64909680843F4490860E16A01EB27
:102A10008101F34A02EB8100211DFFF767FBEE49BC
:102A2000E06A0968C96A884207D34FF08050ED49CF
:102A30000860BFF34F8FBFF36F8FFFF789FA70BD48
:102A40002DE9F04106460027344600BFBF21EFF3D1
:102A5000118081F31188BFF34F8FBFF36F8F00BFD9
:102A600005462046FFF77DFF20B3DF480068E0B948
:102A7000D949E06A0968C96A884200D30127201D44
:102A8000FFF75AFB94F82C1001208840D3490968BD
:102A90000843D2490860E16A01EB8101D04A02EBA8
:102AA0008100211DFFF722FB04E004F11801CF484B
:102AB000FFF71CFB00BF85F3118800BF3846BDE857
:102AC000F08110B516E0FFF734FAC948C068C46851
:102AD000201DFFF731FBC7480068401EC54908604C
:102AE000C5480068401EC4490860FFF731FA204617
:102AF000FFF72EFCC04800680028E4D110BD00BFDD
:102B0000FFF7DFFFB64800680128F9D94FF0805081
:102B1000B4490860BFF34F8FBFF36F8FF0E71CB568
:102B2000B64800210B468022CDE90010B4A1B6487A
:102B3000FFF7C9FB0446012C14D100BFBF2080F36E
:102B40001188BFF34F8FBFF36F8F00BF4FF0FF307F
:102B5000AE4908600120AE4908600020AD49086018
:102B6000FFF7D1F91CBD10B500BFBF2080F311885D
:102B7000BFF34F8FBFF36F8F00BF0020A4490860E1
:102B8000FFF7D6F910BDA349086870470021A14A94
:102B900010687047974800687047014611B98E4821
:102BA000006800E00846024602F13400704770B544
:102BB00005460C468848016818312846FFF7A2FAF6
:102BC00001212046FFF72BFD70BD70B506460C466F
:102BD000154644F000408049096888617E480168D4
:102BE00018313046FFF782FA01212846FFF717FD1A
:102BF00070BD70B50646F068C46804F11800FFF7B0
:102C00009BFA79480068A8B9201DFFF795FA94F857
:102C10002C10012088407149096808436F490860F9
:102C2000E16A01EB81016E4A02EB8100211DFFF791
:102C30005DFA04E004F118016C48FFF757FA6649A1
:102C4000E06A0968C96A884204D9012501207249ED
:102C5000086000E00025284670BD70B505460E46A8
:102C600046F000402860EC682846FFF765FA201D12
:102C7000FFF762FA94F82C10012088405749096840
:102C8000084356490860E16A01EB8101544A02EBAE
:102C90008100211DFFF72AFA4F49E06A0968C96AD5
:102CA000884202D901205C49086070BD10B5044615
:102CB000FFF73FF959480068206056480068606097
:102CC000FFF746F910BD5549096801605149096887
:102CD0004160704770B506460C46FFF72AF94D482B
:102CE00002687068131A2068401C01D1002517E0A3
:102CF0004A4930680968884204D07068904201D817
:102D000001250DE02068984207D92068C01A20608C
:102D10003046FFF7D8FF002502E0002020600125A3
:102D2000FFF716F9284670BD01203B49086070473F
:102D300029490968886928490968C96AC1F10801EF
:102D4000254A12689161704770B506460D46FFF737
:102D5000F0F821480068406C88B901201E490968D4
:102D600081F848005DB101212846FFF758FC4FF07B
:102D700080501C490860BFF34F8FBFF36F8FFFF780
:102D8000E7F8FFF7D6F814480068446C4CB126B158
:102D9000002011490968486403E0601E0E49096873
:102DA000486400200C49096881F84800FFF7D0F812
:102DB000204670BD2DE9F0410746884614461D4661
:102DC000FFF7B7F80448006890F8480002283ED0A2
:102DD0000149096824E0000044000020540000205C
:102DE0009440002004ED00E0740000205C410020CD
:102DF000704100204C00002048000020700000209E
:102E000049444C4500000000FF2A00086C000020E7
:102E100058000020500000206000002064000020C6
:102E200001F14400496CB94301600120B2490968CD
:102E300081F848005DB101212846FFF7F0FB4FF013
:102E40008050AE490860BFF34F8FBFF36F8FFFF71D
:102E50007FF8FFF76EF81CB1A7480068406C20604F
:102E6000A548006890F84800022801D0002608E034
:102E7000A149096801F14400496C21EA0801016097
:102E8000012600209C49096881F84800FFF760F896
:102E90003046BDE8F0812DE9F04781460D461646E3
:102EA0001F464FF0010A4C46FFF743F80FB1606C24
:102EB000386094F84880022084F84800052E17D224
:102EC000DFE806F01503070B0D00606C2843606413
:102ED0000FE0606C401C60640BE0656409E0B8F1D1
:102EE000020F01D0656401E04FF0000A01E000E04C
:102EF00000BF00BFB8F1010F22D1201DFFF71CF960
:102F000094F82C10012088407D49096808437C49C9
:102F10000860E16A01EB81017A4A02EB8100211D20
:102F2000FFF7E4F87449E06A0968C96A884207D97A
:102F30004FF0805071490860BFF34F8FBFF36F8F20
:102F4000FFF706F85046BDE8F0872DE9F84F8346B5
:102F50000D4616461F46DDF828A0012000905C466D
:102F600000BFBF21EFF3118081F31188BFF34F8FB2
:102F7000BFF36F8F00BF81460FB1606C386094F86B
:102F80004880022084F84800052E17D2DFE806F0BA
:102F90001503070B0D00606C284360640FE0606C44
:102FA000401C60640BE0656409E0B8F1020F01D0D9
:102FB000656401E00020009001E000E000BF00BF78
:102FC000B8F1010F2CD150480068A8B9201DFFF7B7
:102FD000B3F894F82C100120884049490968084347
:102FE00047490860E16A01EB8101464A02EB810032
:102FF000211DFFF77BF804E004F118014348FFF7B7
:1030000075F83D49E06A0968C96A884208D9BAF189
:10301000000F02D00120CAF8000001203C490860DE
:1030200000BF89F3118800BF0098BDE8F88F2DE933
:10303000F04105460E462C4600BFBF21EFF311803C
:1030400081F31188BFF34F8FBFF36F8F00BF074627
:1030500094F84880022084F84800606C401C60644A
:10306000B8F1010F29D128480068A8B9201DFFF741
:1030700063F894F82C10012088402149096808431E
:103080001F490860E16A01EB81011E4A02EB8100E1
:10309000211DFFF72BF804E004F118011B48FFF78E
:1030A00025F81549E06A0968C96A884205D90EB150
:1030B0000120306001201649086000BF87F31188A5
:1030C00000BFBDE8F08170B5054615B90A48006833
:1030D00000E028460646FEF72CFF96F84800022836
:1030E00004D1002086F84800012400E00024FEF707
:1030F0002FFF204670BD00004400002004ED00E0DA
:103100005400002094400020740000205C41002006
:103110006000002000200B490860486070470146AD
:10312000084A12688A4203D3064A1268501A04E019
:10313000054A521A034B1B68D018704701480068B3
:103140007047000088000020005C260510B50124AF
:103150000CE001211348FDF70CFB02211148FDF79B
:103160000AFB0A2000F042FA601CC4B2102CF0DB0B
:1031700010BD00BFFFF7E2FF0546FDF7A4FBFFF718
:10318000E5FF2846FFF7CBFF322806D22846FFF797
:10319000C6FFC0F13200C4B200E000242046FFF7B1
:1031A000B7FAE7E7001001401FB56320ADF808004B
:1031B00040F26710ADF804000020ADF80A00ADF849
:1031C000060001A94FF08040FDF73AFE1C208DF863
:1031D000000002208DF8010000208DF8020001207F
:1031E0008DF803006846FDF750F90122114690075B
:1031F000FEF79DF901218807FEF77EF91FBD10B586
:1032000045F25550FDF756FB0620FDF756FB40F6FC
:10321000FF70FDF755FBFDF75BFB10BD08B5FF2008
:10322000ADF8000010208DF8030003208DF8020097
:103230006946AE48FDF7F2F908BD08B5012144F62C
:103240001D00FDF7C1FC0121A948FDF7CAFC0121C1
:10325000A848FDF7B2FA4FF6FF70ADF80000042061
:103260008DF8030003208DF802006946A248FDF79F
:10327000D5F96946A148FDF7D1F969469B48FDF7A4
:10328000CDF908BD10B5FFF7D8FFFFF7C7FF10BD98
:1032900010B50120FDF7B3FB2120FDF76EFB0446BE
:1032A0000CB9002010BD4FF4E0110020FDF7AAFB7F
:1032B0000120FDF7B3FB00BF3920FDF75EFB0028BE
:1032C000FAD03920FDF759FB04460220FDF7A9FB8F
:1032D0000020FDF7B4FB0020FDF7BAFB0020FDF74E
:1032E000C0FB0120DEE710B54FF44070FDF7C8F8D1
:1032F00010BD10B5FFF7F7FFFFF7CAFFFFF7C2FFDA
:10330000FFF77DFFFFF750FFFFF704FF10BD10B57B
:10331000FDF7F0FA4FF48030FDF70CFBFDF749FBA9
:103320007749087008460078D8B94FF4E0114FF497
:103330008030FDF767FB0120FDF770FB00BF3920EF
:10334000FDF71BFB0028FAD00220FDF76AFB0020E6
:10335000FDF775FB4FF48060FDF77AFB0020FDF769
:1033600080FB10BD1FB50920ADF8080040F60F60C6
:10337000ADF804000020ADF80A00ADF8060001A980
:103380006048FDF75DFD1D208DF8000003208DF8DD
:10339000010000208DF8020001208DF8030068462E
:1033A000FDF773F8012211465648FEF7C0F80121D7
:1033B0005448FEF7A1F81FBD00B587B05248FEF78C
:1033C00079FB4FF48060ADF8180018208DF81B00D1
:1033D00003208DF81A0006A94848FDF71FF94FF49D
:1033E0000060ADF8180048208DF81B0003208DF810
:1033F0001A0006A94148FDF711F94FF4E130029097
:103400000020ADF80C00ADF80E00ADF81000ADF8DE
:1034100014000C20ADF8120002A93B48FEF78DFB0A
:1034200027208DF8040001208DF8050000208DF87C
:10343000060001208DF8070001A8FDF726F80122FB
:1034400040F225513048FEF710FC01212E48FEF7CE
:1034500000FC07B000BD08B50220ADF80000102048
:103460008DF8030003208DF8020069462348FDF71C
:10347000D5F84FF48050ADF8000048208DF80300D7
:1034800003208DF8020069461C48FDF7C7F840206C
:10349000ADF8000010208DF8030003208DF8020025
:1034A00069461248FDF7BAF808BD08B54FF4C040A8
:1034B000ADF8000048208DF8030003208DF80200CD
:1034C00069460A48FDF7AAF808BD08B54FF47C70B4
:1034D000ADF8000010208DF8030003208DF80200E5
:1034E00069460648FDF79AF808BD00000010014043
:1034F00017081E000002300000080140000C0140C7
:103500008000002000040040004800401CB50E4828
:1035100003210023C022CDE900100CA10E48FEF7C4
:10352000D2FE1CBD704710B5FFF7E3FE10BD10B50D
:10353000FFF7F9FFFFF7F6FFFFF7E8FFFFF7EFFAF6
:10354000002010BD704700009000002054696D6598
:10355000725461736B00000073310008704700BF44
:10356000FEE700BFFEE700BFFEE700BFFEE77047D3
:1035700010B501218807FEF788FA60B10848006895
:10358000401C07490860084600680649884202D383
:1035900000200349086001218807FEF787FA10BD63
:1035A00088000020005C260501462C224A434FF08B
:1035B000E0235A6100229A611A46126942F0010220
:1035C0001A6100BF4FF0E022106910F0010F02D025
:1035D00010F4803FF6D04FF0E022126922F0010291
:1035E0004FF0E0231A6100229A61704701464AF6C3
:1035F000E0324A434FF0E0235A6100229A611A46B2
:10360000126942F001021A6100BF4FF0E022106916
:1036100010F0010F02D010F4803FF6D04FF0E022FE
:10362000126922F001024FF0E0231A6100229A6130
:103630007047704770477047754600F029F8AE46EE
:1036400005006946534620F00700854618B020B5AE
:10365000FCF704FFBDE820404FF000064FF00007E4
:103660004FF000084FF0000B21F00701AC46ACE82A
:10367000C009ACE8C009ACE8C009ACE8C0098D4697
:1036800070470446AFF300802046FCF798FD000029
:10369000004870479841002001491820ABBEFEE762
:1036A0002600020070470000C83600080000002015
:1036B000940000006C0100085C37000894000020B2
:1036C000644700008801000800A24A0400000000CE
:1036D00000000000010203040607080900000000C2
:1036E0000102030401020304060708090204060894
:1036F000AAAAAAAAF83F00000000000000000000EB
:1037000000000000000000000000000000000000B9
:1037100000000000000000000000000000000000A9
:103720000000000000000000000000000000000099
:103730000000000000000000000000000000000089
:103740000000000000000000010000000100000077
:0C3750000000000000000000000000006D
:0400000508000131BD
:00000001FF
